:020000040800F2
:10000000202100209D010008B927000809260008CA
:10001000B527000823030008D94D000800000000A0
:10002000000000000000000000000000652A000839
:100030003505000800000000632A0008792A00083E
:10004000B7010008B7010008B7010008B7010008B0
:10005000B7010008B7010008B7010008B7010008A0
:10006000B7010008B7010008B7010008B701000890
:10007000B7010008B7010008B7010008B701000880
:10008000B7010008B7010008B7010008B701000870
:1000900029030008B701000839030008B701000868
:1000A000B7010008B7010008B7010008B701000850
:1000B000B7010008B7010008B7010008B701000840
:1000C000B7010008B7010008B7010008B701000830
:1000D000B7010008B7010008B7010008B701000820
:1000E000B7010008B7010008B7010008B701000810
:1000F000B7010008B7010008B7010008B701000800
:10010000B7010008B7010008B7010008B7010008EF
:10011000B7010008B7010008B7010008B7010008DF
:10012000B7010008B7010008B7010008B7010008CF
:10013000B7010008B7010008B7010008B7010008BF
:10014000B7010008B7010008B7010008BD27000883
:10015000B7010008B7010008B7010008B70100089F
:10016000B7010008B7010008B7010008B70100088F
:10017000B7010008B7010008B7010008000000003F
:10018000B7010008B7010008DFF80CD000F08CF8C8
:1001900000480047354F00082021002006488047CE
:1001A00006480047FEE7FEE7FEE7FEE7FEE7FEE75C
:1001B000FEE7FEE7FEE7FEE7312B000889010008B5
:1001C0002DE9F05F0546002092469B46884606468C
:1001D000814640241BE0284641464746224600F01F
:1001E00053F853465A46C01A914110D31146184647
:1001F000224600F03AF82D1A67EB01084F462246D6
:100200000120002100F031F817EB00094E41201EBB
:10021000A4F10104DFDC484631462A464346BDE8E6
:10022000F09F40EA01039B0703D009E008C9121FB1
:1002300008C0042AFAD203E011F8013B00F8013BA0
:10024000521EF9D27047D2B201E000F8012B491ECC
:10025000FBD270470022F6E710B513460A46044663
:100260001946FFF7F0FF204610BD202A04DB203A94
:1002700000FA02F1002070479140C2F1200320FAF9
:1002800003F3194390407047202A04DB203A21FAF7
:1002900002F00021704721FA02F3D040C2F120029F
:1002A0009140084319467047064C074D06E0E06848
:1002B00040F0010394E8070098471034AC42F6D3AD
:1002C000FFF766FF105000083050000870B58C181A
:1002D00010F8015B15F0070301D110F8013B2A115A
:1002E00006D110F8012B03E010F8016B01F8016B47
:1002F0005B1EF9D12B0705D40023521E0DD401F843
:10030000013BFAE710F8013BCB1A921C03E013F80B
:10031000015B01F8015B521EF9D5A142D8D3002040
:1003200070BD00BFFEE7000010B5024800F048FBBA
:1003300010BD00002002002010B5024800F040FB74
:1003400010BD00002002002070B58AB004460D46A2
:10035000164618492068884201D0012000E000209C
:1003600004900E20099013492068884201D1002092
:1003700000E00E200590002006900120079000204C
:100380000090019002900390012008906946204659
:1003900000F0C6F9204600F07AFD064A2068904237
:1003A00001D1022000E010200146204600F0F8F8BC
:1003B0000AB070BD006400402DE9F04107460D46CB
:1003C00016461C460E48056000200D49C86088602E
:1003D000084604610020087500BF03E0315C094A4B
:1003E0001154401CA042F9DB322007490860074B3A
:1003F000044A0349384600F0E8F8BDE8F0810000FF
:10040000E001002000000020140000201000002067
:100410000346042B15D007DC7BB1012B0ED0022B39
:100420000DD0032B12D10BE0202B0BD0212B0AD0A7
:10043000222B09D0232B09D107E008E007E006E0D2
:1004400005E004E003E002E001E000E000BF00BFDF
:10045000002070470020704710B50022044905486D
:1004600002F0C4FC0449034802F0B9FC002010BDAE
:10047000180F0020480200201807002070B504461D
:100480000D462146054802F0AAFC044802F082FC11
:100490002046296800F004F8002070BD48020020C2
:1004A0002DE9F04104460F466178207801EB0020E9
:1004B00086B2A578082D00DD0825002004E0C11CC7
:1004C000615C084A1154401CA842F8DB32200649FE
:1004D0000860EBB2034A31460448FFF76DFFBDE800
:1004E000F0810000200000201C00002020020020DD
:1004F00010B503460C460021084610BD2DE9F04119
:1005000004460D4600260A48D0F8BC72D7F81402FB
:1005100010B10120BDE8F0812A462146044802F0CE
:1005200065FC034802F0E9FC06463046F2E70000AD
:1005300048020020704717E000BF3221032004F07A
:10054000A7FC00BF00BF3221042004F0A1FC00BFC3
:1005500000BF3221052004F09BFC00BF00BF322108
:10056000062004F095FC00BFE6E7000070B50A48DD
:100570000468001D0568001D0668344454B1082253
:100580000649204602F042F8042204491031284668
:1005900002F03CF870BD0000107AFF1F6E000020D2
:1005A00010B5024692F82030012B01D0022B06D163
:1005B00010684069084314686061002010BD506AEB
:1005C00040F4802050620120F8E7F0B504460D4663
:1005D0001E4694F8207020688368A86800B900E07F
:1005E00000BF012F01D0022F7CD103F0806030B911
:1005F00003F0006018B903F08050002873D0C3F3F3
:100600000161022905D9606A40F40000606201209E
:10061000F0BD012088403060A86860B9B5F800C01E
:10062000E86840EA4C5C206800F5C07000EB0110FF
:10063000C0F800C00FE0D5E901C040EACC00D5F811
:100640000CC040EA0C00D4F800C00CF5C07C0CEBE8
:10065000011CCCF80000D5F810C0206800F5C0706F
:1006600000EB0110C0F804C0287D01280ED12068DD
:1006700000F5C07000EB0110406840F4807C2068F9
:1006800000F5C07000EB0110C0F804C0D07900067E
:1006900092F806C040EA0C4092F805C040EA0C2CE3
:1006A00010794CEA000C206800F5C07000EB0110D6
:1006B000C0F80CC0D078000692F802C040EA0C40A6
:1006C00092F801C040EA0C2092F800C040EA0C0009
:1006D000D4F800C00CF5C07C0CEB011CCCF8080071
:1006E000206801E016E00FE000F5C07000EB01109B
:1006F000006840F0010C206800F5C07000EB0110AC
:10070000C0F800C0002083E7606A40F40010606217
:1007100001207DE7606A40F480206062012077E775
:10072000F0B504460A46216894F82050012D01D006
:10073000022D7ED1424901F50071086840F00100A8
:100740000860086820F47C5008600868566A40EA2F
:1007500006200860107D00F01F06012000FA06F355
:10076000C8699843C861A1F50071D069C8B9D1F8CA
:100770000C029843C1F80C02908880B2968940EA36
:10078000064601F51070576940F83760108880B24E
:10079000168940EA064601F51070576900EBC7005C
:1007A0004660D069012819D1D1F80C021843C1F86C
:1007B0000C02908880B2168840EA064601F5107057
:1007C000576940F83760908980B2168940EA06463A
:1007D00001F51070576900EBC7004660906928B9B1
:1007E000D1F804029843C1F8040204E0D1F80402ED
:1007F0001843C1F80402106928B9D1F814029843CB
:10080000C1F8140204E0D1F814021843C1F814022C
:10081000106A012804D1D1F81C021843C1F81C0247
:10082000D1F8000220F00100C1F800020020F0BD64
:10083000FFE7606A40F4802060620120F7E7000073
:1008400000640040704770B5044694F82050012DB4
:1008500001D0022D7DD151B92068C06800F003009D
:1008600080B9606A40F400106062012070BD2068A9
:10087000006900F0030028B9606A40F4001060626B
:100880000120F3E7206800F5D87000EB0110006844
:1008900000F004009060906840B9206800F5D870BE
:1008A00000EB01100068400D106007E0206800F5C3
:1008B000D87000EB01100068C0085060206800F597
:1008C000D87000EB0110006800F00200D0602068D2
:1008D00000F5D87000EB0110406800F00F001061C7
:1008E000206800F5D87000EB0110406800F47F40EC
:1008F000000A9061206800F5D87000EB0110406894
:10090000000C5061206800F5D87000EB0110806881
:100910001870206800F5D87000EB0110806800F4B2
:100920007F40000A5870206800F5D87000EB011075
:10093000806800F47F00000C9870206800F5D87083
:1009400000EB01108068000ED870206800F5D870A8
:1009500000E02FE000EB0110C0681871206800F57E
:10096000D87000EB0110C06800F47F40000A587195
:10097000206800F5D87000EB0110C06800F47F001B
:10098000000C9871206800F5D87000EB0110C06869
:10099000000ED87131B92068C06840F02000266888
:1009A000F06005E02068006940F0200026683061B2
:1009B00000205BE7606A40F480206062012055E718
:1009C0002DE9F05F04460025206846692068D0F8CC
:1009D0000490206887682068D0F80CA02068D0F8C0
:1009E00010B02068D0F8188006F00100002855D01B
:1009F00007F00100C0B101202168886007F0020003
:100A000018B1204600F073FA0EE007F0040010B1B0
:100A100045F4006508E007F0080010B145F4805582
:100A200002E0204600F062FA07F48070C8B14FF48B
:100A300080702168886007F4007018B1204600F0CB
:100A400058FA0EE007F4806010B145F4005508E054
:100A500007F4006010B145F4804502E0204600F044
:100A600047FA07F48030C8B14FF4803021688860BD
:100A700007F4003018B1204600F03DFA0EE007F40C
:100A8000802010B145F4004508E007F4002010B1C3
:100A900045F4803502E0204600F02CFA06F008000C
:100AA00038B10AF0100020B145F40075102021681B
:100AB000C86006F0040040B10AF0080028B1082020
:100AC0002168C860204600F0B1F906F0020038B194
:100AD0002068C06800F0030010B1204600F0A8F9BB
:100AE00006F0400038B10BF0100020B145F48065ED
:100AF00010202168086106F0200040B10BF00800CA
:100B000028B1082021680861204600F0BDF906F0F0
:100B1000100038B12068006900F0030010B12046D1
:100B200000F0B3F906F4003040B109F0100028B12C
:100B3000102021684860204600F0A8F906F48030B3
:100B400040B109F0080028B108202168486020461B
:100B500000F0D2F906F4004088B309F0040078B33D
:100B600006F4807020B108F0010008B145F00105DD
:100B700006F4007020B108F0020008B145F002054B
:100B800006F4806020B108F0040008B145F00405C7
:100B900006F40060A0B108F0700088B108F07000A1
:100BA000402817D006DC10280BD020280CD0302885
:100BB00019D10CE0502810D0602814D110E01DE0AD
:100BC00019E045F008050FE045F010050CE045F090
:100BD000200509E045F0400506E045F0800503E00A
:100BE00045F4807500E000BF00BF2068806920F0F8
:100BF0007000216888610420216848602DB1606A16
:100C0000284360622046FFF71DFEBDE8F09F70B5E7
:100C100004460CB9012070BD94F8200010B920469C
:100C200000F0B0F82068006820F002002168086039
:100C300000F07EFA05460DE000F07AFA401B0A2823
:100C400008D9606A40F400306062052084F8200012
:100C50000120E0E72068406800F002000028EBD1A6
:100C60002068006840F001002168086000F060FA28
:100C700005460DE000F05CFA401B0A2808D9606ABE
:100C800040F400306062052084F820000120C2E7B3
:100C90002068406800F001000028EBD0207E012889
:100CA00006D12068006840F080002168086005E0F7
:100CB0002068006820F0800021680860607E0128BC
:100CC00006D12068006840F040002168086005E017
:100CD0002068006820F0400021680860A07E01289C
:100CE00006D12068006840F020002168086005E017
:100CF0002068006820F0200021680860E07E01285C
:100D000006D12068006820F010002168086005E026
:100D10002068006840F0100021680860207F0128EA
:100D200006D12068006840F008002168086005E0EE
:100D30002068006820F0080021680860607F0128B2
:100D400006D12068006840F004002168086005E0D2
:100D50002068006820F0040021680860D4E90201DE
:100D6000084321690843616908436168491E0843D3
:100D70002168C86100206062012084F82000002002
:100D800049E7000010B586B00446142101A8FFF71A
:100D900061FA23492068884240D100BF00200090BA
:100DA0002048006840F000701E490860084600684E
:100DB00000F00070009000BF00BF00BF0020009056
:100DC00018481038006840F00200164910390860D1
:100DD0000846006800F00200009000BF00BF4FF41A
:100DE00040700190022002900020039003200490A4
:100DF0000920059001A90C4800F094F80022114642
:100E0000142000F023FA142000F010FA00221146FA
:100E1000162000F01BFA162000F008FA06B010BDEC
:100E20000064004040380240000402407047000067
:100E300010B50446104B114A00212046FFF703FD70
:100E40000E480088000A0E4908700C480078487067
:100E500008208870002005E007490A5C084BC11C87
:100E60005A54401C0828F7DB3220064908600B2141
:100E70000348FFF743FB10BD08000020F8010020E5
:100E8000140200201800002070477047704770B5AA
:100E9000044694F82000012822D1022084F8200082
:100EA0002068006820F001002168086000F040F927
:100EB00005460DE000F03CF9401B0A2808D9606A9D
:100EC00040F400306062052084F82000012070BDED
:100ED0002068406800F001000028EBD16062F6E76E
:100EE000606A40F4002060620120F0E770477047BC
:100EF00070477047704770477047000070B50446F0
:100F000000F016F906462546681C10B10448007822
:100F1000054400BF00F00CF9801BA842FAD370BD55
:100F200030000020F8B502460B46002500240020C2
:100F30000021DCE0012606FA01F51E6806EA050438
:100F4000AC4273D15E68012E08D05E68022E05D0D7
:100F50005E68112E02D05E68122E13D190684F0089
:100F60000326BE40B0434F00DE68BE403043906071
:100F7000506801268E40B0431E79C6F300168E409D
:100F800030435060D0684F000326BE40B0434F004E
:100F90009E68BE403043D0605E68022E02D05E681C
:100FA000122E13D1CF0802F1200656F827004E0763
:100FB000F70E0F26BE40B0434F07FF0E1E69BE401E
:100FC0003043CF0802F1200646F8270010684F0092
:100FD0000326BE40B0431E7906F003064F00BE4014
:100FE000304310605E6806F08056B6F1805F7DD1B8
:100FF00000BF00260096404E366846F480463E4FBD
:101000003E603E46366806F48046009600BF00BF4C
:101010003A4E8F0856F827008E07370F0F26BE402E
:10102000B043374EB24202D1002624E05EE0354E96
:10103000B24201D101261EE0334EB24201D1022656
:1010400019E0324EB24201D1032614E0304EB242D2
:1010500001D104260FE02F4EB24201D105260AE04D
:101060002D4EB24201D1062605E02C4EB24201D1EE
:10107000072600E008268F073F0FBE4030431F4E73
:101080008F0846F82700264E3068A0435E6806F4B5
:101090008036B6F5803F00D12043214E3060361DAA
:1010A0003068A0435E6806F40036B6F5003F00D114
:1010B00020431B4E361D3060361D3068A0435E68ED
:1010C00006F48016B6F5801F00D12043144E083672
:1010D0003060361D3068A0435E6806F40016B6F531
:1010E000001F00D120430E4E0C363060491C1029E1
:1010F000FFF420AFF8BD000044380240083801403A
:10110000000002400004024000080240000C0240BF
:10111000001002400014024000180240001C02406F
:10112000003C01400AB1816101E00B04836170471A
:10113000014800687047000028000020034800684C
:1011400003490978084401490860704728000020D5
:101150003000002010B50D48006840F400700B49C5
:1011600008600846006840F480600860084600682F
:1011700040F480700860032000F0A6F8002000F022
:1011800007F800F02BF8002010BD0000003C0240E2
:1011900070B504460E4800784FF47A71B1FBF0F058
:1011A0000C490968B1FBF0F5284601F013FA08B1C3
:1011B000012070BD102C07D200222146501E00F0E5
:1011C00045F80548046001E00120F2E70020F0E75F
:1011D00030000020340000202C00002008B500BFA3
:1011E000002000901048006840F480400E490860DC
:1011F0000846006800F48040009000BF00BF00BFB8
:1012000000200090081F006840F08050091F08600F
:101210000846006800F08050009000BF00BF072023
:1012200000F052F808BD000044380240014608466C
:10123000002809DB00F01F0301229A4043099B00AC
:1012400003F1E023C3F8002100BF70472DE9F05FF0
:1012500080460D461646002703F0C0FD0746394676
:101260002A46334601F00700C0F1070ABAF1040F1D
:1012700002D94FF0040A01E0C0F1070AD14600F19B
:10128000040ABAF1070F02D24FF0000A01E0A0F100
:10129000030AD4464FF0010A0AFA09FAAAF1010A30
:1012A0000AEA020A0AFA0CFA4FF0010B0BFA0CFBDD
:1012B000ABF1010B0BEA030B4AEA0B042146404653
:1012C00003F094FDBDE8F09F00BF00F00702064B5D
:1012D00019684FF6FF031940044B0B4343EA022100
:1012E000014B196000BF70470CED00E00000FA05EB
:1012F000704702461068416200207047F0B503460F
:1013000015461868446A21B944EA05401E68B0626F
:1013100019E01868806A04EB1044002208E018689D
:1013200000F5827050F8220004EB1044501CC2B249
:10133000481E9042F3D844EA0547186800F58270C9
:101340004E1E40F826700020F0BD10B50446D4F8BB
:10135000040402F0AEF910BD70B504460D46C5EBAD
:10136000C50304F13C0101EB8301CA682946D4F8A6
:10137000040402F0E2F870BD70B504460D46C5EBFA
:10138000C50304F5FE7101EB8301CA682946D4F850
:10139000040402F045F970BD10B50446D4F8040405
:1013A00002F08AF910BD70B504460E4606F08000C2
:1013B00080280AD106F00F00C0EBC00104F13C0008
:1013C00000EB81050120687009E006F00F00C0EB1A
:1013D000C00104F5FE7000EB81050020687006F086
:1013E0000F00287000BF94F8BC03012801D102202F
:1013F00070BD012084F8BC0300BF2946206802F0BC
:1014000065FE00BF002084F8BC0300BF00BFEFE70B
:1014100070B504460E4606F00F006168884201D997
:10142000012070BD06F0800080280AD106F00F0070
:10143000C0EBC00104F13C0000EB810501206870A5
:1014400009E006F00F00C0EBC00104F5FE7000EBF0
:101450008105002068700020A87006F00F00287039
:1014600000BF94F8BC03012801D10220D9E7012074
:1014700084F8BC0300BF2946206803F00DF900BFC3
:10148000002084F8BC0300BF00BFCAE7024601F099
:101490000F00C0EBC00302F5FE7000EB8300806913
:1014A00070472DE9F04705460E4690461F464FF01F
:1014B000000906F0800080280AD106F00F00C0EB7A
:1014C000C00105F13C0000EB81040120607009E0DF
:1014D00006F00F00C0EBC00105F5FE7000EB8104C3
:1014E0000020607006F00F002070C4F80880E770DC
:1014F000607808B12078E080022F01D100202071AF
:1015000000BF95F8BC03012802D10220BDE8F08796
:10151000012085F8BC0300BF2146286802F0F2FCD8
:1015200000BF002085F8BC0300BF4846EEE72DE968
:10153000F04104460E461746984606F00F00C0EBF1
:10154000C00104F5FE7000EB8105EF60C5F8148062
:101550000020A861687006F00F002870206901283B
:1015600000D12F6106F00F0028B9227C294620689F
:1015700002F06EFF04E0227C2946206803F020F987
:101580000020BDE8F08170B504460D4605F00F005F
:101590006168884201D9012070BD05F08000802873
:1015A0000AD105F00F00C0EBC00104F13C0000EBD4
:1015B00081060120707007E0C5EBC50104F5FE70DF
:1015C00000EB8106002070700120B07005F00F0064
:1015D000307000BF94F8BC03012801D10220DBE782
:1015E000012084F8BC0300BF3146206803F09BF85B
:1015F00005F00F0028B9217C04F57172206803F012
:1016000013F800BF002084F8BC0300BF00BFC3E78D
:101610002DE9F04104460E461746984606F00F00A5
:10162000C0EBC00104F13C0000EB8105EF60C5F8A0
:1016300014800020A8610120687006F00F00287057
:101640002069012800D12F6106F00F0028B9227C03
:101650002946206802F0FCFE04E0227C294620682E
:1016600003F0AEF80020BDE8F0812DE9FE4F0446FE
:1016700020680290029D206803F08DFA00287DD139
:10168000206803F0C7FA08B9BDE8FE8F206803F0B0
:10169000C1FA00F00200022805D12068406900F07C
:1016A000020021684861206803F0B4FA00F01000DD
:1016B000102846D12068806920F0100021688861D8
:1016C0000298D0F8209009F00F00C0EBC00104F59B
:1016D000FE7000EB810BC9F3434002281AD147F694
:1016E000F07009EA000030B3C9F30A12DBF80C10FD
:1016F000029803F094FAC9F30A11DBF80C000844CD
:10170000CBF80C00C9F30A11DBF818000844CBF839
:10171000180010E0C9F3434006280CD1082204F554
:101720007171029803F07BFAC9F30A11DBF8180013
:101730000844CBF818002068806940F01000216848
:101740008861206803F066FA00F40020B0F5002FED
:1017500052D10026206803F02DFA824649E00AF0B3
:101760000100E8B3F1B2206803F047FA804608F0C0
:10177000010058B1012105F5306000E021E200EBE5
:10178000461081603146204601F052F808F008000A
:10179000082809D1082105F5306000EB461081606A
:1017A0003146204601F012F808F01000102805D14B
:1017B000102105F5306000EB4610816008F0200034
:1017C000202805D1202105F5306000EB461081600E
:1017D00008F40050B0F5005F08D14FF4005100E06C
:1017E00004E005F5306000EB46108160761C4FEA9E
:1017F0005A0ABAF1000FB2D1206803F00BFA00F4D4
:101800008020B0F5802F7ED1206803F0C9F9824690
:10181000002683E00AF0010000287CD0F1B22068A5
:1018200003F0D2F9804608F00100F0B306F00F0192
:1018300001208840019040F634004159019821EA86
:10184000000040F634014851012105F5106000EB1D
:10185000461081602069012824D1C6EBC60104F13D
:101860003C0000EB8100C6EBC602C16804F13C00FD
:1018700000EB820080680144C6EBC60204F13C0024
:1018800000EB8200C1606EB9C6EBC60104F13C00FA
:1018900000EB8100406928B904F5717201212068CC
:1018A00002F0C2FEF1B2204600E001E0FFF754FD75
:1018B00008F00800082805D1082105F5106000EBA4
:1018C0004610816008F01000102805D1102105F5A0
:1018D000106000EB4610816008F04000402805D100
:1018E000402105F5106000EB4610816008F0020011
:1018F000022805D1022105F5106000EB4610816039
:1019000008F0800001E00DE005E0802803D13146B9
:10191000204601F04BF8761C4FEA5A0ABAF1000F44
:101920007FF478AF206803F075F900F00040B0F163
:10193000004F1CD140F60400405920F0010140F650
:101940000400415194F8F403012807D1002084F8E1
:10195000F40300212046FFF7CBFC02E0204600F014
:1019600063FA2068406900F00040216848612068FF
:1019700003F050F900F40060B0F5006F0ED140F6AE
:101980000800405900F0010010B1204600F0A4FA10
:101990002068406900F4006021684861206803F015
:1019A00039F900F48050B0F5805F7DD140F6040035
:1019B000405920F0010140F60400415110212068F7
:1019C00003F0BEF800273EE04FF67F3105F51060CA
:1019D00000EB4710816005F5106000EB47100068D0
:1019E00020F4001105F5106000EB4710016005F5CB
:1019F000106000EB4710006840F0006105F51060D2
:101A000000EB471001604FF67F3105F5306000EBC9
:101A10004710816005F5306000EB4710006820F446
:101A2000001105F5306000EB4710016005F53060EE
:101A300000EB4710006840F0006105F5306000EBF6
:101A4000471001607F1C6068B842BDD840F61C009A
:101A5000405940F0011140F61C004151206B70B11B
:101A6000D5F8840840F00B01C5F8841840F644000E
:101A7000405940F00B0140F6440041510FE040F660
:101A80001400405942F22B01084340F6140148511A
:101A9000081F405940F00B014FF401604151D5F847
:101AA000000820F4FE6000E00DE0C5F80008217C8D
:101AB00004F57172206802F0B7FD2068406900F4F7
:101AC000805021684861206803F0A4F800F40050B9
:101AD000B0F5005F17D1206802F07CFA206803F0AF
:101AE00047F8E06000F0D4FA0090227B206800996B
:101AF00003F0E0F8204600F07FF92068406900F428
:101B0000005021684861206803F084F800F0080064
:101B1000082808D1204600F08EF92068406900F0BE
:101B2000080021684861206803F074F800F4801010
:101B3000B0F5801F0AD100263146204600F043F858
:101B40002068406900F4801021684861206803F033
:101B500061F800F40010B0F5001F0AD100263146EC
:101B6000204600F039F82068406900F40010216830
:101B70004861206803F04EF800F08040B0F1804FDB
:101B800008D12046FFF7E1FB2068406900F0804063
:101B900021684861206803F03DF800F00400042843
:101BA0000FD12068D0F8049009F00400042802D175
:101BB0002046FFF7F1FB2068406840EA09002168F1
:101BC000486000BF60E570B504460D462946D4F86C
:101BD000040401F0DBFD70BD70B504460D462946D6
:101BE000D4F8040401F0D5FD70BD70B58AB0044688
:101BF00014B901200AB070BD266894F8BD0328B955
:101C0000002084F8BC03204600F0A2F8032084F8EA
:101C1000BD03F06B00F4807008B9002121612068D9
:101C200002F00EFC282204F110016846FEF7F9FAD2
:101C300094E80F0002F0E2F920B1022084F8BD031D
:101C40000120D7E70021206802F0FAFF002531E0EB
:101C50000121C5EBC50204F13C0000EB820041709C
:101C6000C5EBC50104F13C0000F82150C5EBC501EE
:101C700000EB8100C5800021C5EBC50204F13C00EA
:101C800000EB8200C170C5EBC50204F13C0000EB23
:101C900082008160C5EBC50204F13C0000EB8200CC
:101CA000C160C5EBC50204F13C0000EB820041615C
:101CB000681CC5B26068A842CAD800252AE0002185
:101CC000C5EBC50204F5FE7000EB82004170C5EB68
:101CD000C50104F5FE7000F821500021C5EBC502D6
:101CE00000EB8200C170C5EBC50204F5FE7000EB8D
:101CF00082008160C5EBC50204F5FE7000EB820036
:101D0000C160C5EBC50204F5FE7000EB82004161C5
:101D1000681CC5B26068A842D1D8282204F110011D
:101D20006846FEF77EFA94E80F0002F099FA20B1B7
:101D3000022084F8BD0301205CE7002084F838000D
:101D4000012084F8BD03206802F078FA002051E7F2
:101D500010B586B00446142101A8FEF77BFA20686E
:101D6000B0F1A04F42D100BF002000902048006891
:101D700040F001001E4908600846006800F00100BC
:101D8000009000BF00BF4FF4C050019002200290AD
:101D900000200390032004900A20059001A9154813
:101DA000FFF7C0F800BF1248001D006840F0800037
:101DB0000F49091D086000BF002000900C48143036
:101DC000006840F480400A49143108600846006801
:101DD00000F48040009000BF00BF00BF0022114609
:101DE0004320FFF733FA4320FFF720FA06B010BD77
:101DF000303802400000024070B504460125E0681A
:101E000008B9002506E0E068022801D1012501E0BB
:101E1000FEF791FB2946D4F8040401F036FDD4F80E
:101E2000040401F0E9FC70BD10B50446D4F80404C4
:101E300001F00FFD10BD10B50446D4F8040401F004
:101E400013FD10BD70B504460D4600BF94F8BC03E9
:101E5000012801D1022070BD012084F8BC0300BF1D
:101E600084F838502946206802F005FF00BF0020A2
:101E700084F8BC0300BF00BFEDE710B5044604F5CD
:101E80007171D4F8040401F017FD10BD70B504465B
:101E9000256800BF94F8BC03012801D1022070BD61
:101EA000012084F8BC0300BFA06A012806D1A06904
:101EB000012803D0A86B40F48030A863206802F0AA
:101EC00021FE206802F0A8F900BF002084F8BC03BE
:101ED00000BF00BFE3E7000010B50446D4F80404D7
:101EE00001F047FD2068D0F8000E40F001002168A5
:101EF000C1F8000E206A28B10348006840F00600CF
:101F00000149086010BD000010ED00E070B5044606
:101F10000D460CB9012070BD5848006800F00F0054
:101F2000A84209D255490D700846006800F00F001C
:101F3000A84201D00120EEE7207800F0020002283C
:101F40001DD1207800F00400042805D14C48006819
:101F500040F4E0504A490860207800F00800082862
:101F600005D14748006840F460404549086044484E
:101F7000006820F0F000A16808434149086020781B
:101F800000F00100A8B36068012807D13C48083878
:101F90000068C0F34040B8B90120BCE7606802287F
:101FA00002D06068032807D1354808380068C0F3BC
:101FB000406048B90120AEE7314808380068C0F3F6
:101FC000400008B90120A6E72D48006820F0030072
:101FD000616808432A490860FFF7AAF8064609E045
:101FE000FFF7A6F8801B41F28831884202D903200E
:101FF00091E707E02248006800F00C006168B0EB50
:10200000810FEDD11D48006800F00F00A84209D9EA
:102010001A490D700846006800F00F00A84201D070
:10202000012078E7207800F00400042807D1144844
:10203000006820F4E050E168084311490860207806
:1020400000F00800082808D10D48006820F460401E
:10205000216940EAC1000A49086000F01FF80849F8
:102060000968C1F30311074A515CC840064908607A
:1020700006480068FFF78CF800204CE7003C02405F
:1020800008380240F84F0008340000202C000020DF
:102090000148006870470000340000202DE9F04737
:1020A000002400250026A1462548006800F00C0009
:1020B00020B1042805D008283AD105E0DFF8849043
:1020C00039E0DFF8849036E01D48001F006800F01A
:1020D0003F041B48001F006800F4800078B11A48D4
:1020E0001749091F0968C1F38811A0FB0170014657
:1020F000224600233846FEF763F805460EE01148F5
:102100000F49091F0968C1F38811A0FB017001463E
:10211000224600233846FEF753F805460848001FBC
:102120000068C0F30140401C4600B5FBF6F902E030
:10213000DFF8109000BF00BF4846BDE8F087000000
:10214000083802400024F40000127A00F8B5044672
:102150000CB90120F8BD207800F00100002874D0EF
:10216000F948006800F00C0004280DD0F64800681B
:1021700000F00C00082813D1F348001F006800F499
:102180008000B0F5800F0BD1EF4808380068C0F32D
:102190004040002859D06068002856D10120D9E776
:1021A00000BF6068B0F5803F08D1E7480838006894
:1021B00040F48030E449083908601EE06068B0F5FA
:1021C000A02F0DD1E0480838006840F48020DE4997
:1021D000083908600846006840F4803008600CE068
:1021E000D9480838006820F48030D7490839086099
:1021F0000846006820F48020086000BF606890B145
:10220000FEF796FF054606E0FEF792FF401B6428A6
:1022100001D903209EE7CC4808380068C0F340404D
:102220000028F1D011E0FEF783FF054606E0FEF737
:102230007FFF401B642801D903208BE7C248083880
:102240000068C0F340400028F1D1207800F002007F
:1022500002285FD1BC48006800F00C0058B1BA48B1
:10226000006800F00C0008281CD1B748001F006867
:1022700000F48000B0B9B44808380068C0F34000EA
:1022800020B1E068012801D0012063E7AE4808389A
:10229000006820F0F800216940EAC100AA49083925
:1022A000086037E0E06800B30120A8490860FEF745
:1022B0003FFF054606E0FEF73BFF401B022801D921
:1022C000032047E7A04808380068C0F34000002812
:1022D000F1D09D480838006820F0F800216940EAF4
:1022E000C10099490839086014E000209749086046
:1022F000FEF71EFF054606E0FEF71AFF401B022808
:1023000001D9032026E7904808380068C0F3400050
:102310000028F1D1207800F0080008282CD160694D
:10232000A8B101208A490860FEF702FF054606E0D1
:10233000FEF7FEFE401B022801D903200AE782486F
:102340006C300068C0F340000028F1D014E0002099
:102350007F490860FEF7ECFE054606E0FEF7E8FE62
:10236000401B022801D90320F4E677486C3000684E
:10237000C0F340000028F1D1207800F004000428C8
:1023800070D1002770483830006800F0805090B954
:1023900000BF002000906C483830006840F080504A
:1023A0006949383108600846006800F080500090A4
:1023B00000BF00BF01276748006800F48070B0B913
:1023C0006448006840F4807062490860FEF7B0FE1F
:1023D000054606E0FEF7ACFE401B022801D90320AB
:1023E000B8E65C48006800F480700028F2D000BFB6
:1023F000A068012808D154486830006840F0010006
:102400005149683108601DE0A06805280DD14E488B
:102410006830006840F004004B49683108600846A5
:10242000006840F0010008600CE047486830006830
:1024300020F001004449683108600846006820F037
:102440000400086000BFA068A8B1FEF771FE054651
:1024500009E0FEF76DFE401B41F28831884202D947
:10246000032077E626E0384868300068C0F3400073
:102470000028EED013E0FEF75BFE054608E0FEF70D
:1024800057FE401B41F28831884201D9032061E6A2
:102490002D4868300068C0F340000028EFD1012FBC
:1024A00007D129483830006820F08050264938315B
:1024B000086000BFA069002845D02348006800F0EC
:1024C0000C0008285DD0A069022845D100201F49D2
:1024D0000866FEF72DFE054606E0FEF729FE401BC6
:1024E000022801D9032035E6174808380068C0F3F0
:1024F00040600028F1D1D4E907010843616A40EA4D
:1025000081110122A06AC2EB500041EA00412C2057
:10251000005D41EA00600C49091F086001200B4979
:102520000866FEF705FE054606E0FEF701FE401BC5
:10253000022801D903200DE6034808380068C0F3DB
:1025400040600028F1D03FE00838024000004742D8
:10255000800E47420070004000201C490866FEF7CC
:10256000E7FD054606E0FEF7E3FD401B022801D922
:102570000320EFE516480068C0F340600028F2D160
:1025800022E0A069012800D1E4E51148001D066899
:1025900006F48001E069814214D106F03F01206A0F
:1025A00081420FD147F6C0703040616A884209D13C
:1025B00006F44031A06A814204D106F07061E06AFD
:1025C000814201D00120C5E50020C3E5000047425B
:1025D0000038024070B504462546681EB0F1807F81
:1025E00001D301200FE0681E4FF0E02148610F2168
:1025F0004FF0FF3002F0FAFB00204FF0E02188613D
:1026000007200861002070BD00BFFEE730B50B4613
:10261000002100BF16E00A24B4EB107F05D9302456
:1026200004EB107403F8114005E0412404EB10742E
:102630000A3C03F81140000100254C00641C1D55A4
:102640004C1CE1B29142E6DB30BD000010B50F48F2
:102650000F4908600920486000210D488160C16071
:102660004FF4402101614FF4801141610021017656
:102670000121417600218176C17601774177FEF70D
:10268000C6FA08B1FDF757FF10BD00000064004016
:102690002002002000B587B0142102A8FDF7DAFD62
:1026A00000BF002001902E48006840F004002C4933
:1026B00008600846006800F00400019000BF00BFF9
:1026C00000BF002001900846006840F080000860CC
:1026D0000846006800F08000019000BF00BF00BF06
:1026E000002001900846006840F008000860084695
:1026F000006800F00800019000BF00BF00BF00208C
:1027000001900846006840F0010008600846006833
:1027100000F00100019000BF00BF00BF0020019049
:102720000846006840F0020008600846006800F0B3
:102730000200019000BF00BF00224FF47041094821
:10274000FEF7F0FC4FF4704002900120039000204F
:102750000490059002A90348FEF7E4FB07B000BD12
:1027600030380240000C024010B500220D490E48DE
:1027700000F09BFE08B1FDF7DEFE0C490A4801F0AF
:1027800035F908B1FDF7D7FE0949074800F01FFBEE
:1027900008B1FDF7D0FE044801F006FA08B1FDF7D4
:1027A000CAFE10BD3800002048020020AC00002006
:1027B0008800002000BFFEE77047000010B5024807
:1027C000FEF753FF10BD0000181700202DE9F04759
:1027D00004460D4626683746D6F8408007F5306037
:1027E00000EB4510D0F80890104880450BD909F44B
:1027F0000040B0F5004F06D14FF4004107F53060BE
:1028000000EB451081602046FFF737FB0748804505
:1028100008D92069012805D104F5717201212068C9
:1028200001F002FF0020BDE8F08700000A30544F9D
:102830002DE9F04705460C46D5F800804646D8F805
:10284000409006F5306000EB441087682869012845
:1028500073D107F0080008280FD1524881450BD9E1
:1028600007F40040B0F5004F06D14FF4004106F5E3
:10287000306000EB4410816091E007F020002028D8
:1028800006D1202106F5306000EB4410816086E01F
:1028900007F0280000280ED1424881450CD907F4E2
:1028A0000040B0F5004F07D14FF4004106F530600D
:1028B00000EB4410816072E0C4EBC40105F5FE70CA
:1028C00000EB8100816806F5306000EB4410006980
:1028D000C0F31200091AC4EBC40205F5FE7000EB48
:1028E00082008161C4EBC40105F5FE7000EB81003C
:1028F000C4EBC402C16805F5FE7000EB820080687D
:102900000144C4EBC40205F5FE7000EB8200C16017
:102910006CB9C4EBC40105F5FE7000EB81004069A1
:1029200028B905F571720121286801F07DFEE1B238
:102930002846FEF721FD32E0FFE71B4881451BD109
:1029400007F40040B0F5004F07D14FF4004106F501
:10295000306000EB4410816021E007F02000202867
:1029600005D1202106F5306000EB44108160E1B212
:102970002846FEF701FD12E06CB9C4EBC40105F571
:10298000FE7000EB8100406928B905F571720021E5
:10299000286801F049FEE1B22846FEF7EDFC002070
:1029A000BDE8F0870A30544F0A31544F2DE9F84FF3
:1029B00007460E46D7F80090C846C6EBC60107F199
:1029C0003C0000EB8104D4E90510884202D90120C3
:1029D000BDE8F88FD4E90501451AA068A84200D2E5
:1029E000A568E81C4FEA900A17E0D4E90501451AEA
:1029F000A068A84200D2A568E81C4FEA900A387C7B
:102A0000ABB2F2B200904846E16802F0C7F9E06864
:102A10002844E060A0692844A06108F5106000EB3C
:102A20004610806980B2504506D3D4E9051088422B
:102A300002D260690028D8D1D4E9050188420ED8B5
:102A400006F00F01012000FA01FB40F6340050F8B7
:102A5000080020EA0B0040F6340141F8080000208D
:102A6000B6E77047704730B501460A461378521CE6
:102A7000147843EA042030BD10B5FEF75FFB10BDAB
:102A800000B593B0302107A8FDF7E4FB142102A89C
:102A9000FDF7E0FB00BF002001902348006840F0F4
:102AA0008050214908600846006800F0805001907D
:102AB00000BF00BF00BF002001901C48006840F428
:102AC00080401A4908600846006800F48040019080
:102AD00000BF00BF012007900004089002200D9065
:102AE00041050E9104210F9148211091022111916D
:102AF0000321129107A8FFF729FB08B1FDF71BFD81
:102B00000F20029002200390002004904FF4805088
:102B1000059000200690022102A8FFF7F7F908B1FE
:102B2000FDF709FD13B000BD4038024000700040C1
:102B30000548006840F47000034908604FF00060E9
:102B4000014980390860704788ED00E02DE9F041C7
:102B500004460D46D4F8C472D4F8BC0210B9032060
:102B6000BDE8F081D4F8BC6205EB850104F11400E6
:102B700000EB8100406808B305EB850104F1140007
:102B800000EB8100C5EBC502416807F13C0000EB9A
:102B900082008068B1FBF0F200FB121070B90021D6
:102BA00005EB850204F1140000EB82004160002374
:102BB0001A462946204600F0E6FE0BE00020C6F843
:102BC0001402D6F80802D4F8C0122A460B6906F59A
:102BD000047198470020C3E770B504460E46D4F848
:102BE000BC52D4F8BC0208B9032070BD314620465F
:102BF00000F072FDC5F80C02D5F80402D4F8C0123A
:102C0000CA6805F5037190470020EEE770B50446E9
:102C10000E4600258121204600F07CFC0021218702
:102C20000121204600F076FC0021A4F878118221D1
:102C3000204600F06FFC0021A4F84C10A4F84E10C0
:102C4000D4F8BC0250B1D4F8C01248688047D4F818
:102C5000BC0202F047F90020C4F8BC02284670BD4F
:102C600070B50546D5F8BC42D5F8C00278B194F8E5
:102C70000002FF280BD094F8012294F80002D5F846
:102C8000C0128B6821469847FF2084F8000200207C
:102C900070BD000001460A2008800148704700000E
:102CA000A000002001464320088001487047000032
:102CB0002801002001464320088001487047000099
:102CC000E4000020014643200880014870470000CE
:102CD0006C01002070B504460E464FF4077002F0F8
:102CE00055F9054625B90020C4F8BC02022070BD84
:102CF000C4F8BC52207CA0B94FF400730222812199
:102D0000204600F049FD012121874B020222204686
:102D100000F042FD0121A4F878111021A4F84E1012
:102D200012E0402302228121204600F035FD0121DE
:102D3000218740230222204600F02EFD0121A4F825
:102D400078111021A4F84E10082303228221204676
:102D500000F022FD0121A4F84C10D4F8C01208683C
:102D600080470020C5F81402C5F81802207C40B93D
:102D70004FF4007301212046D5F8042200F024FD11
:102D800006E0402301212046D5F8042200F01CFD76
:102D90000020ACE770B50446D4F8BC52D4F8BC02AD
:102DA00008B9032070BD207C40B94FF400730121A5
:102DB0002046D5F8042200F007FD06E0402301215B
:102DC0002046D5F8042200F0FFFC0020EAE7024686
:102DD00009B903207047C2F8C0120020FAE7024682
:102DE000D2F8BC32C3F804120020704710B5034675
:102DF000D3F8BC42C4F80812C4F81022002010BD59
:102E00002DE9FC4105460C46D5F8BC620020019036
:102E100000900027207800F0600040B3202862D1A5
:102E2000E088E0B1207800F0800060B1E28860784E
:102E3000D5F8C0128B6831469847E288314628465B
:102E400000F0EBF812E0607886F80002A07986F8CE
:102E50000102E2883146284600F0BEF806E06078BC
:102E6000D5F8C01200228B682146984741E060786F
:102E700030B101282ED00A2812D00B282BD11FE008
:102E800095F89C02032805D102226946284600F0E5
:102E9000C4F804E02146284600F092F8032720E019
:102EA00095F89C02032805D1012201A9284600F0CB
:102EB000B4F804E02146284600F082F8032710E029
:102EC00095F89C02032804D02146284600F078F8A3
:102ED000032706E005E02146284600F071F80327A5
:102EE00000BF00BF05E02146284600F069F803272F
:102EF00000BF00BF3846BDE8FC8170B50546D5F877
:102F0000BC420126D5F8BC0208B9032070BDD4F834
:102F1000140270B90120C4F81402D4F81012E96246
:102F200081212846D4F81032D4F8082200F02BFD75
:102F300000263046EAE770B504460D46D4F8B802DC
:102F400028B1D4F8B80229464268204690470020AC
:102F500070BD70B504460D4694F89C02012804D05B
:102F6000022803D003280CD101E000BF00BF68880D
:102F7000012805D10020C4F8A402204600F05EF824
:102F800004E02946204600F01BF800BF00BF70BDDA
:102F900070B506460C4615462B46224600213046A3
:102FA00000F012FC002070BD70B506460C461546B8
:102FB0002B4622460021304600F0E5FC002070BD83
:102FC00070B504460D468021204600F0B0FC00217B
:102FD000204600F0ACFC70BD70B504460E461546A8
:102FE0000320C4F894024FF4AC700551001D055144
:102FF0002B4632460021204600F0E6FB002070BD43
:1030000010B504460520C4F8940200231A46194658
:10301000204600F0D9FB002010BD70B504460E46D6
:1030200015460220C4F89402A561E5612B4632469C
:103030000021204600F0A7FC002070BD10B504461A
:103040000420C4F8940200231A461946204600F0D2
:103050009AFC002010BD000070B505460C462DB945
:103060002246064906A000F0E0F904E022460349A2
:1030700003A000F0DAF9014870BD00001805002037
:1030800043444320436F6E66696700000246122086
:1030900008800148704700005400002070B50546C4
:1030A0000C462DB92246064906A000F0BEF904E000
:1030B0002246034903A000F0B8F9014870BD0000A2
:1030C0001805002043444320496E746572666163AD
:1030D0006500000002460420088001487047000097
:1030E0006800002070B505460C462246024903A040
:1030F00000F09BF9004870BD1805002053544D693D
:1031000063726F656C656374726F6E6963730000E0
:1031100070B505460C462DB92246064906A000F0BA
:1031200084F904E02246034903A000F07EF9014837
:1031300070BD00001805002053544D3332205669ED
:10314000727475616C20436F6D506F727400000073
:1031500070B505460C461A202080FDF707FA014895
:1031600070BD00006C00002070B504460D46E88874
:10317000012804D029462046FFF722FF1EE094F8DC
:103180009C02012804D0022803D0032810D109E0B2
:1031900000BF0020A060012204F108012046FFF7D3
:1031A0003CFF0AE00122211D2046FFF736FF04E024
:1031B00029462046FFF704FF00BF00BF70BDF8B5E9
:1031C00004460E460020009000270025708800125B
:1031D000082875D2DFE800F0C7040C20C7C7A5B5E2
:1031E000207CD4F8B4120A68694690470746C1E0CB
:1031F000207C40B9D4F8B802816A684688470746FF
:103200000220787007E0D4F8B802C16A684688479F
:10321000074602207870ADE0B078062878D2DFE863
:1032200000F00316293C5063D4F8B402406838B16A
:10323000207CD4F8B4124A6869469047074605E0F6
:1032400031462046FFF7BCFE681CC5B267E0D4F8E3
:10325000B402806838B1207CD4F8B4128A68694618
:103260009047074605E031462046FFF7A9FE681C57
:10327000C5B254E0D4F8B402C06838B1207CD4F8A8
:10328000B412CA6869469047074605E031462046B1
:10329000FFF796FE681CC5B241E0D4F8B40200699D
:1032A00038B1207CD4F8B4120A69694690470746C1
:1032B00005E031462046FFF783FE681CC5B22EE0CC
:1032C00051E0D4F8B402406938B1207CD4F8B4128B
:1032D0004A6969469047074605E031462046FFF7B0
:1032E0006FFE681CC5B21AE0D4F8B402806940B120
:1032F000207CD4F8B4128A6969469047074606E0F4
:1033000006E031462046FFF75BFE681CC5B206E0CA
:1033100031462046FFF754FE681CC5B200BF00BF0F
:1033200028E0207C30B9D4F8B802416B6846884761
:10333000074605E031462046FFF742FE681CC5B24D
:1033400018E0207C40B9D4F8B802016B6846884781
:1033500007460720787005E031462046FFF730FE2B
:10336000681CC5B206E031462046FFF729FE681CFE
:10337000C5B200BF00BF05B1F8BDF088C0B1BDF84F
:10338000000080B1F088BDF80010884202DDBDF871
:10339000000000E0F0880090BDF80020394620468B
:1033A000FFF73BFE07E031462046FFF709FE02E04B
:1033B0002046FFF743FE00BFDEE7014600200A4635
:1033C00002E0431CD8B2521C1378002BF9D170478D
:1033D00070B504460D4694F89C02012804D00228DA
:1033E00003D003281AD101E000BF00BFE8880228FB
:1033F00004D029462046FFF7E3FD14E00120E060F9
:10340000D4F8A40218B1E06840F00200E0600222A3
:1034100004F10C012046FFF700FE04E02946204697
:10342000FFF7CEFD00BF00BF70BD2DE9F04107469C
:103430000D46904600240FB9BDE8F0813E46304667
:10344000FFF7BBFF022101EB4000A8F8000098F84D
:1034500000002855601CC4B203202855601CC4B26B
:1034600008E030782855761C601CC4B2002028552E
:10347000601CC4B230780028F3D100BFDCE70146FD
:10348000002031B1012906D0022906D0032908D134
:1034900005E0002007E0032005E0012003E0032011
:1034A00001E0032000BF00BF70472DE9F041044652
:1034B0000D46164614B90320BDE8F081D4F8B802D1
:1034C00010B10020C4F8B802D4F8CC0210B100202A
:1034D000C4F8CC020DB1C4F8B452012084F89C02A7
:1034E0002670204600F002F907463846E4E72DE949
:1034F000F04104460D46002600272946D4F8C402B0
:10350000FDF786FF06463046FFF7B9FF0746384607
:10351000BDE8F0812DE9F04104460D460026002764
:103520002946D4F8C402FDF73EFF06463046FFF7B1
:10353000A6FF07463846BDE8F0812DE9F041044674
:103540000F469046002F54D104F11405D4F894028C
:10355000022843D1D5E9020188420FD9D5E90201F9
:10356000401AA86041462046AA68FFF71DFD0023C7
:103570001A461946204600F027F92FE0D5E9021037
:10358000884217D1E9686868884213D36868D4F81C
:10359000981288420ED2002211462046FFF704FD01
:1035A0000020C4F8980200231A461946204600F06D
:1035B0000BF913E0D4F8B802C06840B194F89C024B
:1035C000032804D1D4F8B802C16820468847802176
:1035D000204600F0ACF92046FFF712FD94F8A00257
:1035E00001281BD1204600F014FA002084F8A00224
:1035F00014E0D4F8B802406970B194F89C02032832
:103600000AD1D4F8B80239464269204690470646A6
:1036100026B13046BDE8F0810320FBE70020F9E742
:103620002DE9F04105460F4690465FBB05F5AA74AB
:10363000D5F8940203283AD1D4E90201884210D97E
:10364000D4E90201401AA060D4E90201884201D203
:10365000A06800E0E068024641462846FFF798FC73
:1036600025E0D5F8B802006940B195F89C0203281E
:1036700004D1D5F8B8020169284688472846FFF7E3
:10368000DDFC14E0D5F8B802806970B195F89C02B1
:1036900003280AD1D5F8B8023946826928469047EE
:1036A000064626B13046BDE8F0810320FBE7002046
:1036B000F9E701460020704710B50446012084F860
:1036C0009C02D4F8B80228B12179D4F8B802426833
:1036D00020469047002010BD70B504460D4629468F
:1036E000D4F8C402FDF7D2FE70BD000010B5044648
:1036F000207800282AD11648C0F80444C4F8C4022F
:103700004FF0A04012490860042048600221104890
:10371000C16000210161022181610021C16101625A
:103720004162C1620163FEF760FA08B1FCF703FF72
:1037300080210748FDF7DDFD402200210448FDF708
:10374000DDFD802201210248FDF7D8FD002010BDDB
:103750001817002010B50246D2F8C43201F08000DC
:10376000802809D101F07F00C0EBC00403F13C00C8
:1037700000EB8400807810BD01F07F00C0EBC00436
:1037800003F5FE7000EB84008078F4E70246002029
:1037900070470246002070472DE9F04704460F4667
:1037A00015461E464FF00008C1462B4632463946A4
:1037B000D4F8C402FDF775FE80464046FFF75FFE71
:1037C00081464846BDE8F0872DE9F04704460D469E
:1037D00016461F464FF00008C1463B463246294672
:1037E000D4F8C402FDF7A3FE80464046FFF747FE2B
:1037F00081464846BDE8F08710B50446012084F8AC
:103800009C020020C4F894026060C4F8A402D4F8BA
:10381000BC0228B12179D4F8B8024268204690470A
:103820004023002211462046FFF7B6FF01214FF446
:10383000B27001534021001F01514023002280211A
:103840002046FFF7A9FF0121A18440212162002029
:1038500010BD014691F89C02042803D191F89D0205
:1038600081F89C020020704710B5044694F89C0231
:10387000032808D1D4F8B802C06920B1D4F8B8023E
:10388000C16920468847002010BD024611740020FF
:1038900070472DE9F04104460D46002600272946D1
:1038A000D4F8C402FEF7CEFA06463046FFF7E7FD2D
:1038B00007463846BDE8F08170B504460D462946F6
:1038C00004F2AA2000F077F80120C4F894024FF423
:1038D0002C70005BC4F8980294F8AA0200F01F0054
:1038E00020B1012809D0022815D10DE004F2AA2147
:1038F000204600F05FF9064616E004F2AA212046B1
:1039000000F0C0FA06460FE004F2AA21204600F0BB
:10391000A4F9064608E094F8AA0200F080012046C7
:1039200000F005F8064600BF00BF304670BD2DE927
:10393000F04104460D46002600272946D4F8C4026B
:10394000FDF721FE06463046FFF799FD074638464B
:10395000BDE8F08170B5044600250026D4F8C40205
:10396000FEF794FA05462846FFF789FD06463046DD
:1039700070BD014691F89C0281F89D02042081F8F7
:103980009C02002070472DE9F04704460D4616467C
:103990001F464FF00008C1463B4632462946D4F840
:1039A000C402FDF735FE80464046FFF768FD8146BC
:1039B0004846BDE8F08770B505460E463446207887
:1039C0002870641C20786870641C2046FFF74BF850
:1039D0006880641C641C2046FFF745F8A880641CBE
:1039E000641C2046FFF73FF8E88070BD38B50446F8
:1039F0000D46002000900DB9032038BDC4F8B85220
:103A0000D4F8B802816A68468847C4F8CC0200201E
:103A1000F3E701460020704770B504460D46A888BC
:103A200010BBE88800BB688880281DD2A87800F009
:103A30007F0694F89C02032804D129462046FFF70C
:103A4000BFFA15E084F89E6231462046FFF721FF59
:103A50002046FFF7F3FA1EB1022084F89C0207E02B
:103A6000012084F89C0203E029462046FFF7A8FACB
:103A700070BD70B504460D460326D4F8B80230B1C7
:103A8000D4F8B802294602682046904706463046D8
:103A900070BD000070B504460E460025B0783B4965
:103AA000087008460078012805D931462046FFF7FE
:103AB00087FA032070BD94F89C02022802D00328E4
:103AC00056D11CE031480078A8B1304800786060D9
:103AD0002E4801782046FFF7CCFF054625B1314638
:103AE0002046FFF76DFA09E02046FFF7A7FA03200A
:103AF00084F89C0202E02046FFF7A0FA43E0234846
:103B0000007870B9022084F89C0220480078606038
:103B10001E4801782046FFF70EFA2046FFF78EFA7E
:103B200025E01A490978606888421DD0217920462D
:103B3000FFF701FA154800786060144801782046C4
:103B4000FFF797FF05465DB131462046FFF738FA8B
:103B500021792046FFF7EFF9022084F89C0206E065
:103B60002046FFF76BFA02E02046FFF767FA0AE00B
:103B700031462046FFF724FA044801782046FFF733
:103B8000DAF9032500BF00BF284693E79C00002018
:103B900070B505460C466088012804D1C5F8A4021A
:103BA0002846FFF74BFA70BD10B504462046FFF7D4
:103BB000D1FE10BD70B505460C460026207800F0F9
:103BC000600068B1202802D040283ED100E000BF4C
:103BD000D5F8B8022146826828469047064639E063
:103BE00060780A282AD2DFE800F01A24291F290A5F
:103BF0000529150F21462846FFF7E1FA23E0214663
:103C00002846FFF709FF1EE021462846FFF742FF3E
:103C1000064618E021462846FFF7A6FA13E021469B
:103C20002846FFF7D5FB0EE021462846FFF7B0FFF8
:103C300009E021462846FFF78CF904E02146284692
:103C4000FFF7BEF900BF00BF04E021462846FFF79A
:103C5000B7F900BF00BF304670BD2DE9F041054601
:103C60000E464FF000083479307800F0600068B1FB
:103C7000202802D0402870D100E000BFD5F8B8025B
:103C800031468268284690478046F7E070780028E1
:103C900064D001282FD003286FD195F89C02022808
:103CA00002D0032820D110E054B1802C08D0214646
:103CB0002846FFF73CFE80212846FFF738FE03E048
:103CC00031462846FFF77CF913E0708840B93CB1D3
:103CD000802C05D0F08818B921462846FFF727FE2A
:103CE0002846FFF7ABF904E031462846FFF768F9AC
:103CF00000BF00BFBBE095F89C02022802D0032859
:103D000024D110E054B1802C08D021462846FFF77A
:103D10000EFE80212846FFF70AFE03E031462846C2
:103D2000FFF74EF917E0708878B904F07F0018B1FA
:103D300021462846FFF7DBFB2846FFF77FF9D5F839
:103D4000B802314682682846904704E0314628464A
:103D5000FFF736F900BF00BF89E08AE095F89C02C2
:103D6000022802D0032876D126E03CB1802C05D071
:103D700031462846FFF724F972E073E004F0800032
:103D8000802808D104F07F0000EB800105F11400C9
:103D900000EB810007E004F07F0000EB800105F5F7
:103DA000AA7000EB810007460020386002223946E5
:103DB0002846FFF732F953E004F0800080280ED146
:103DC00004F00F0000EB800105F1140000EB81000E
:103DD000008A98B931462846FFF7F2F840E004F02F
:103DE0000F0000EB800105F5AA7000EB8100008A4E
:103DF00020B931462846FFF7E3F831E004F08000AF
:103E0000802808D104F07F0000EB800105F1140048
:103E100000EB810007E004F07F0000EB800105F576
:103E2000AA7000EB810007460CB1802C02D1002063
:103E3000386009E021462846FFF78CFC10B10120CC
:103E4000386001E000203860022239462846FFF73A
:103E5000E4F805E0FFE731462846FFF7B1F800BF78
:103E600000BF04E031462846FFF7AAF800BF00BFB4
:103E700004E031462846FFF7A3F800BF00BF4046E4
:103E8000BDE8F08170B505460C460026207800F0AC
:103E9000600030B1202802D040282AD100E000BFC5
:103EA00000BF95F89C02012804D0022803D0032803
:103EB00018D101E000BF00BF207901280DD8D5F846
:103EC000B80221468268284690470646E08840B9F5
:103ED0003EB92846FFF7B2F803E021462846FFF72F
:103EE0006FF804E021462846FFF76AF800BF00BFDC
:103EF00004E021462846FFF763F800BF00BF3046C4
:103F000070BD000070B504460B46224619785878FB
:103F100001282CD140F61C0080581D7805F00F06B2
:103F20000125B540ADB2284340F61C05A85002F566
:103F3000106000EB4110006800F40040F0BB1889ED
:103F4000C0F30A00DD7840EA854040EA815040F045
:103F5000805040F4004002F5106505EB41152D68D6
:103F6000284302F5106505EB411528602DE040F669
:103F70001C0080581D7805F00F060125B540144E31
:103F800006EA0545284340F61C05A85002F53060B6
:103F900000EB4110006800F4004078B91889C0F3C4
:103FA0000A00DD7840EA854040F0805040F400404F
:103FB00002F5306505EB41152D6800E005E028436A
:103FC00002F5306505EB41152860002070BD00004A
:103FD0000000FFFF01460A464FF410608058C30AF4
:103FE000DB024FF41060835040F60400805840F428
:103FF000807340F604008350002070470FB470B502
:1040000004460A98012817D1A06B20F48030A063E1
:10401000E0681A490840E060E06820F44010E06081
:104020001198012803D1E06840F48010E060204638
:1040300000F026F8054612E0E06840F04000E0603D
:10404000204600F01DF805460E9820B9A06B40F4FC
:104050008030A06303E0A06B20F48030A063089858
:10406000012807D1A06840F00600A060A06840F0D9
:104070002000A060284670BC5DF814FBBFFFBDFFA8
:104080000146002200BF501C02460F4B984201D946
:1040900003207047086900F000400028F3D0002298
:1040A000086940F00100086100BF501C0246064B41
:1040B000984201D90320ECE7086900F001000028CC
:1040C000F3D100BFE5E70000400D030070B50446E2
:1040D0000B46224619785878012848D102F510601D
:1040E00000EB4110006800F00040B0F1004F17D124
:1040F00002F5106000EB4110006840F0006502F529
:10410000106000EB4110056002F5106000EB4110FB
:10411000006840F0804502F5106000EB411005603A
:1041200040F63C0080581D7805F00F060125B5408B
:10413000ADB2A84340F63C05A85040F61C0080589C
:104140001D7805F00F060125B540ADB2A84340F635
:104150001C05A85002F5106000EB411000682B4DC3
:10416000284002F5106505EB411528604BE002F58B
:10417000306000EB4110006800F00040B0F1004FEB
:1041800017D102F5306000EB4110006840F0006587
:1041900002F5306000EB4110056002F5306000EB85
:1041A0004110006840F0804502F5306000EB41109E
:1041B000056040F63C0080581D7805F00F0601258B
:1041C000B540134E06EA0545A84340F63C05A85005
:1041D00040F61C008558187800F00F060120B0400A
:1041E0000B4E06EA0040854340F61C00855002F560
:1041F000306000EB41100068064D284002F5306544
:1042000005EB41152860002070BD0000007833ECFC
:104210000000FFFF0078F3EF01460A46D2F8000ED7
:1042200020F00300C2F8000E40F60400805820F091
:10423000020340F6040083500020704701460A46FE
:10424000D2F8000E20F00300C2F8000E40F6040081
:10425000805840F0020340F604008350002070476D
:104260000FB4F0B5054600272E46002405E00021D6
:1042700005F5827040F82410641C0F2CF7D31098B9
:10428000A0B940F60400805940F0020140F6040055
:104290008151A86B40F40010A863A86B20F40020A3
:1042A000A863A86B20F48020A86307E0A86B20F423
:1042B0000010A863A86B40F40020A8630020C6F893
:1042C000000ED6F80008C6F800080B9801280BD19C
:1042D000089820B90021284600F0E2FC08E00121FE
:1042E000284600F0DDFC03E00321284600F0D8FC5E
:1042F0001021284600F024FC00B10127284600F0D8
:1043000009FC00B1012700214FF401608151001D1B
:10431000815140F61C00815100242EE006F510600A
:1043200000EB4410006800F00040B0F1004F10D1E5
:104330003CB94FF0006106F5106000EB44100160DD
:104340000DE04FF0904106F5106000EB4410016065
:1043500005E0002106F5106000EB4410016000212B
:1043600006F5106000EB441001614FF67F3106F551
:10437000106000EB44108160641C0698A042CDD808
:1043800000242EE006F5306000EB4410006800F0D9
:104390000040B0F1004F10D13CB94FF0006106F57C
:1043A000306000EB441001600DE04FF0904106F5E5
:1043B000306000EB4410016005E0002106F530603C
:1043C00000EB44100160002106F5306000EB441062
:1043D00001614FF67F3106F5306000EB44108160DB
:1043E000641C0698A042CDD84FF40160805920F497
:1043F00080714FF4016081510020A8616FF080400E
:104400006861099818B9A86940F01000A861A86906
:1044100009490843A8610C9818B1A86940F0080040
:10442000A8611098012803D1A86904490843A8612C
:104430003846F0BC5DF814FB00383C8004000040B6
:104440000146886820F00100886000207047000065
:10445000F0B505460B4614462A46197858780128C7
:1044600075D1586920BB02F5106000EB411000695E
:104470006C4E304002F5106606EB4116306102F5D5
:10448000106000EB4110006940F4002602F5106056
:1044900000EB4110066102F5106000EB411000696D
:1044A000C60CF60402F5106000EB4110066137E01F
:1044B00002F5106000EB41100069C60CF60402F52D
:1044C000106000EB4110066102F5106000EB411036
:1044D0000069544E304002F5106606EB411630611B
:1044E0009E685869B04201D99868586102F5106019
:1044F00000EB4110006940F4002602F5106000EB6B
:104500004110066102F5106000EB411000695E6920
:10451000C6F31206304302F5106606EB4116306111
:10452000012C15D1186928B102F5106000EB41107B
:104530001E69466102F5106000EB4110006840F012
:10454000044602F5106000EB4110066068E01BE0D5
:1045500002F5106000EB4110006840F0044602F5DF
:10456000106000EB411006605869002858D040F6F2
:10457000340080581E7806F00F070126BE403043F5
:1045800040F63406B0504BE002F5306000EB4110CD
:104590000069C60CF60402F5306000EB41100661BC
:1045A00002F5306000EB411000691E4E304002F50C
:1045B000306606EB41163061586908B19868586159
:1045C00002F5306000EB4110006940F4002602F56E
:1045D000306000EB4110066102F5306000EB4110E5
:1045E00000699E68C6F31206304302F5306606EB9A
:1045F00041163061012C07D1D86828B102F530602E
:1046000000EB4110DE68466102F5306000EB4110BE
:10461000006840F0044602F5306000EB411006608F
:104620000020F0BDFFFF07E070B503460C461946B9
:104630001D6C1848854209D94FF43060405800F08D
:104640000040B0F1004F01D1002070BD0026C1F83C
:10465000106BD1F8100B40F40026C1F8106BD1F8A4
:10466000100B40F01806C1F8106BD1F8100B40F099
:10467000C046C1F8106B012C09D1C1F8142B4FF4BE
:104680003060405840F080264FF4306046500020A3
:10469000DBE700000A30544F30B504460B46224693
:1046A0001978587801281ED102F5106000EB4110EE
:1046B000006820F4001502F5106000EB4110056061
:1046C000D878032802D0D87802282AD102F51060C1
:1046D00000EB4110006840F0805502F5106000EBDF
:1046E000411005601DE002F5306000EB41100068EC
:1046F00020F4001502F5306000EB41100560D87819
:10470000032802D0D87802280BD102F5306000EBE4
:104710004110006840F0805502F5306000EB411018
:104720000560002030BD30B504460B46224619789E
:104730005878012821D102F5106000EB4110006883
:1047400000F0004060B959B102F5106000EB411073
:10475000006820F0804502F5106000EB4110056014
:1047600002F5106000EB4110006840F4001502F5FE
:10477000106000EB4110056020E002F5306000EBB6
:104780004110006800F0004060B959B102F5306096
:1047900000EB4110006820F0804502F5306000EB2E
:1047A0004110056002F5306000EB4110006840F4F4
:1047B000001502F5306000EB41100560002030BDAF
:1047C0002DE9F84381460E4617464D4634787078F9
:1047D00001287DD1706920BB05F5106000EB441005
:1047E0000069C749084005F5106101EB44110861F3
:1047F00005F5106000EB4410006940F4002105F558
:10480000106000EB4410016105F5106000EB4410EE
:104810000069C10CC90405F5106000EB441001618A
:1048200055E005F5106000EB44100069C10CC904A7
:1048300005F5106000EB4410016105F5106000EB18
:1048400044100069AE49084005F5106101EB4411C0
:104850000861B16870690844401EB0FBF1F0A849D6
:10486000C94301EAC04005F5106101EB4411096933
:10487000084305F5106101EB4411086105F510606E
:1048800000EB441000697169C1F31201084305F59A
:10489000106101EB44110861F078012817D105F58A
:1048A000106000EB4410006920F0C04105F5106075
:1048B00000EB4410016105F5106000EB4410006945
:1048C00040F0005105F5106000EB4410016100E07C
:1048D0007FE0012F36D1306928B105F5106000EB7B
:1048E000441031694161F07801281ED140F608007A
:1048F000405900F4807060B905F5106000EB441079
:10490000006840F0005105F5106000EB44100160B4
:104910000BE005F5106000EB4410006840F080519A
:1049200005F5106000EB4410016005F5106000EB28
:104930004410006840F0044105F5106000EB44109D
:104940000160DAE005F5106000EB4410006840F00B
:10495000044105F5106000EB44100160F078012877
:104960000FD070690028ECD040F6340040593178FF
:1049700001F00F0201219140084340F634014851F3
:10498000BBE040F60800405900F4807060B905F5BE
:10499000106000EB4410006840F0005105F5106015
:1049A00000EB441001600BE005F5106000EB4410D3
:1049B000006840F0805105F5106000EB4410016084
:1049C0000097B08A83B232784846F16800F0E6F981
:1049D00093E005F5306000EB44100069C10CC90498
:1049E00005F5306000EB4410016105F5306000EB27
:1049F000441000694249084005F5306101EB44115B
:104A000008617069D0B905F5306000EB44100069A9
:104A1000B168C1F31201084305F5306101EB44119F
:104A2000086105F5306000EB4410006940F4002196
:104A300005F5306000EB4410016126E0B168706953
:104A40000844401EB0FBF1F01FFA80F805F5306015
:104A500000EB441000692A49C94301EAC8410843F0
:104A600005F5306101EB4411086105F5306000EB9C
:104A700044100069B16801FB08F1C1F31201084359
:104A800005F5306101EB44110861012F07D1F06891
:104A900028B105F5306000EB4410F1684161F07811
:104AA00001281ED140F60800405900F4807060B91A
:104AB00005F5306000EB4410006840F0005105F54A
:104AC000306000EB441001600BE005F5306000EB56
:104AD0004410006840F0805105F5306000EB441050
:104AE000016005F5306000EB4410006840F00441BF
:104AF00005F5306000EB441001600020BDE8F8834C
:104B0000FFFF07E00146886840F001008860002050
:104B100070470000014600221020086100BF501CB1
:104B20000246064B984201D903207047086900F0FD
:104B300010001028F3D00020F7E70000400D03001C
:104B400010B502460023202040EA8110106100BF0A
:104B5000581C0346054CA04201D9032010BD106922
:104B600000F020002028F3D00020F7E7400D0300DC
:104B700010B501460B4640F60804E45804F006025E
:104B80000AB9002006E0022A01D0062A01D102203B
:104B900000E00F2010BD0146486900F00100704799
:104BA00001460B4640F61800C258001DC05802408E
:104BB00090B2704701460B4640F61800C258001DDF
:104BC000C0580240100C704770B5024613464FF4AF
:104BD0000166F45840F63406F55801F00F0625FA40
:104BE00006F606F0010644EAC61403F5106606EB65
:104BF0004116B66806EA040070BD10B502461346B9
:104C000003F5306404EB4114A06840F61404E45842
:104C1000204010BD014648698A6910407047F0B5D0
:104C200003461E460846D71CBD08002405E04FF485
:104C30008057BF590760001D641CAC42F7D3F0BD1C
:104C400070B504460D46E06820F0C040E060012DDC
:104C500004D1E06840F00050E06007E025B9E0686A
:104C600040F08040E06001E0012070BD3220FCF7A0
:104C700045F90020F9E710B502460B461146D1F878
:104C8000000820F4FE60C1F80008D1F800084FF4D5
:104C9000FE6404EA03142043C1F80008002010BD9C
:104CA00002461346D3F800080843C3F80008002062
:104CB0007047000030B503461446022C49D12D48F8
:104CC000814204D32C48814201D20F2245E02A4878
:104CD000814204D32948814201D20E223DE0274877
:104CE000814204D32648814201D20D2235E0244876
:104CF000814204D32348814201D20C222DE0214875
:104D0000814204D32048814201D20B2225E01E4873
:104D1000814204D31D48814201D20A221DE01B4872
:104D2000814204D31A48814201D2092215E0184871
:104D3000814204D31748814201D208220DE0154870
:104D4000814204D31448814201D2072205E00622A1
:104D500003E00CB9092200E00922D86820F4705061
:104D6000D860D8684FF4705505EA82252843D8608A
:104D7000002030BDC0ACD800C0E1E4000024F40045
:104D800080730601A0491A01002D310140A44C0195
:104D900000366E0120ABA6010048E8012DE9F04382
:104DA00004460D46DDF81CC0A0462E46BCF1000F9F
:104DB0000FD1D81C8708002109E008F5805000EBCE
:104DC0000230D6F80090C0F80090361D491CB94258
:104DD000F3D30020BDE8F08300BFFEE7024800687F
:104DE000C0F30220704700000CED00E010B5002871
:104DF00004DB0A07130E054A135406E00A07140ED3
:104E0000034A00F00F031B1FD45410BD00E400E060
:104E100018ED00E002E008C8121F08C1002AFAD10C
:104E200070477047002001E001C1121F002AFBD12A
:104E3000704700002DE9F04107460E46DFF84C8030
:104E40003568042F04D0052F05D0062F09D105E0C1
:104E50004FF4805408E04FF4804405E04FF40044E0
:104E600002E04FF4005400BF00BF002D0BDD012213
:104E700021464046FCF756F96D1E25B90022214611
:104E80004046FCF74FF93560BDE8F081000C024068
:104E90002DE9F04105460E46114F042D04D0052D95
:104EA00005D0062D09D105E04FF4805408E04FF4F9
:104EB000804405E04FF4004402E04FF4005400BF8A
:104EC00000BF012221463846FCF72CF93046FCF79A
:104ED00015F8002221463846FCF724F9BDE8F08198
:104EE000000C024010B5002821D0114B0022001FF9
:104EF000196803E0814203D80A4649680029F9D1BC
:104F000052B11368841A9C4204D10068184410609E
:104F1000104602E0506000E0186039B102680B1AD8
:104F2000934203D10B681A4402604968416010BD86
:104F3000B0010020FCF70EF9FDF7A2FD3220FBF7CF
:104F4000DDFFFDF7A7FBFDF781FBFDF70DFC002260
:104F500011460A48FBF7F8F90EE009490320FFF76C
:104F600069FF08490420FFF765FF07490520FFF79F
:104F700061FF0120FBF7C2FFEFE7000020020020E5
:104F800014000020180000201C000020F0B50B3099
:104F9000154D20F007010024144A0FE003688B42EE
:104FA0000BD38B4205D95E1A43184768C3E90067E3
:104FB00000E04368136002C004E0021D106800288E
:104FC000ECD12046002802D1286808B10020F0BDAD
:104FD000064A07481060074A121A22F00702C0E981
:104FE000002401202860D7E7B4010020B001002090
:104FF000241B0020201D00200000000000000000F5
:10500000010203040607080900000000010203046E
:105010003050000800000020B8010000CC02000859
:10502000F8500008B8010020681F0000244E000856
:10503000012C321042011324F4138D301B08D504C7
:105040001AE5041311311B0851041A590C1A9D0456
:10505000131201140202021640830440571D02017C
:10506000020335071A040309041A031359041B0821
:1050700055041A11041A7D041AF10441130A063268
:10508000022A407813D52C1B080D044B012E1C1A44
:10509000610C134D2B1B08D904C11AB5181AA504AD
:1050A0001AC5041A95041C09024387111DC0320950
:1050B00004C11A020B13052416100105240110095E
:1050C0000104240202052406170107058203081CB7
:1050D000100904BD320A1D070501027B2C0705815A
:1050E00007110937442A40072A8107112B09074471
:0850F0000A3B044481000000AA
:040000050800018965
:00000001FF
